:0200000025C019
:10000200FECFFDCFFCCFFBCFFACFF9CFF8CFF7CFA2
:10001200F6CFF5CFF4CFF3CFF2CFF1CFF0CFEFCFD2
:10002200EECFEDCF00000000C000F900A400B00048
:10003200990092008200F800800090000400040001
:100042002600130014022A000000F894EE27ECBBED
:10005200F1E0FBBFEBBFE5BF8DE0A2E0BB27ED9374
:100062008A95E9F780E094E0A0E6ED930197E9F73D
:10007200EEE3F0E085919591009761F0A591B5913D
:1000820005901590BF01F00105900D920197E1F7DF
:10009200FB01F0CFEFE5EDBFE4E0EEBFC0E6D1E05B
:1000A20000C0E3ECE7BBE0E0E8BBE0E1E4BBE8E092
:1000B200E5BBEFEFE1BBE2BBE0E0E3BFE2BFEFBDD8
:1000C200EEBDEDBDECBDE7BDE6BDEBBDEABDE9BDF4
:1000D200E8BDE2BDE5BDE4BDE3BDE9BFE5BFEAB908
:1000E200E0E8E8B9E0E0E0BFE6B9EDB9E6BF01E07B
:1000F20010E00A30E0E01E0774F4F80149D1EF770E
:10010200E2BBC09AC19AC69AC79AA4EFB1E0B2D133
:100112000F5F1F4FEECFCBD02297E0E0E883E98359
:100122009B9905C0AAE03CD19B9BFECFC0D0E8E2E0
:10013200F0E0E415F50534F5E0E7F1E0FA93EA932F
:10014200A9E2B0E0DDD0E091C001F091C10160917F
:10015200C2017091C301E0936C01F0936D01609351
:100162006E0170936F01A0916F01AA234AF4E0E03F
:10017200E0936C01E0936D01E0936E01E0936F01F7
:10018200442455245ED0E0916C01F0916D016091A0
:100192006E0170916F01A7D105D1E2BBC09A0AD15D
:1001A200C0980AD10BD1EF77E2BBC19A03D1C198B3
:1001B20003D104D1E2BBC69AFDD0C698FDD0D301CB
:1001C200EAE0F0E097D23F0168827982E881F98122
:1001D200DFD0E2BBC79AEED0C798EED0F2013196DB
:1001E2002F01229699CFFFCF24971A939D9AAC980C
:1001F200E0E0E983EA83EB83EC839D99FECF10E094
:10020200183178F4AC9ADFD058D2E2D0AC989D9BEA
:1002120006C0D9D0EF5FFF4F6F4F7F4FD9D01F5F1E
:10022200EFCFAC9AA981BA818B819C81E0E0F0E0AA
:1002320060E870E02CD2CCD0AC98C5D0188125965D
:100242000895CBD0D1DFD3D0DBD0E3D0D0D0E091B2
:100252006801F091690160916A0170916B01DFD0D0
:10026200A0916401B091650180916601909167014E
:10027200DFD008D2D4D0E5D0EDE4F0EA68EB7EE33B
:1002820097D1A0E6B1E02FD19DD2F201A0E7B1E073
:100292000FD2EA0FFB1FFF93EF93D3D0E0E0F0E021
:1002A20060E470E485D1AF91BF918CD2089598D269
:1002B20000E010E092D000E010E00A30E0E01E071B
:1002C2005CF492DF9DD0D9D192D088EE93E0019771
:1002D200F1F70F5F1F4FF1CF93D0EAE0F0E060E05B
:1002E20070E032D284D08CD094D0E0936401F09349
:1002F20065016093660170936701099119910895F0
:10030200BA93AA936BD200E010E0EC81FD813197A1
:100312000E171F07D4F520E030E0F8013196AC81CA
:10032200BD8155D2EA1BFB0B2E173F075CF5F90185
:100332008DD07F936F93FF93EF93F901319686D01F
:10034200AF91BF918F919F9178D109F008F417C0B6
:10035200229783D0AE0FBF1F2BD2C3D0E883F9837D
:100362007CD0EA0FFB1F0F017DD026D2D0012AD20A
:1003720079D0E881F981A6D1EDD024D222962F5FDF
:100382003F4FCBCF0F5F1F4FC0CF2DD2289608957E
:10039200A4E1B2E0EE0FFF1FAE0FBF1FEC91089574
:1003A200B0E068C03F01D301EAE0F0E0D2D1E883D7
:1003B200F983EECFA5E0F4CFA1E0F2CFD301EAE0DA
:1003C200F0E098D1EFCFE981FA816B817C810895C9
:1003D200E983FA836B837C830895E0E0E09368010C
:1003E200E0936901E0936A01E0936B010895E09361
:1003F2006801F093690160936A0170936B0108953B
:10040200A0916801B091690180916A0190916B019C
:100412000895E4E6F0E060E070E096D10895E0939C
:100422006001F0936101609362017093630108952A
:10043200E0916001F091610160916201709163014C
:100442000895F6DF87D0DF01CB010895AE81BF8129
:100452002FD1AE0FBF1FB0D10895F901A885B9857C
:1004620027D10895F9013196A885B98521D1AE0F1A
:10047200BF1F0895109639F080ED97E00197F1F7CC
:10048200A8951197C9F70895552342F4503811F4ED
:10049200E0FF04C03196691F791F6BF050E85727BF
:1004A20011F45F9373C05F3F31F0660F000C5795F4
:1004B2006795752F08955F9300200AF073C06CC092
:1004C20050E8192E1522880F991F9527550F8795E9
:1004D20050E8072E0522660F771F7527550F67957F
:1004E2000895689401C0E8945F93F2DF703818F0C1
:1004F2007F3F08F44BC056E1571BAAF45195583080
:100502000EF4593030F0EFEFFFEF6FEF7FE777F93E
:100512001AC077275523B9F0EE0FFF1F661F771F0A
:100522005A95D1F710C07727583028F0EF2FF62FC1
:10053200672F5850F9CF552331F076956795F79587
:10054200E7955A95D1F700200AF4AAD05F91089551
:10055200689401C0E894309760407040B1F0002484
:1005620026F0772312F400949BD0172E7EE11120FF
:1005720032F07A95EE0FFF1F661F111CF9CFEF2F95
:10058200F62F612D5F938ADF5F910895EE27FF2793
:10059200662777275F910895EFEFFFEF6FE77FEF11
:1005A2005F910895EFEFFFEF6FE77FE75F910895A7
:1005B2005F9386DF703821F411200AF4EDCFF2CF79
:1005C200903809F4E3CF01240894970B1BF4D4F379
:1005D2000020F3CF792F1F932F933F934F93112432
:1005E2001127222733274427552790E2AE17BF074A
:1005F2008607410730F0AE1BBF0B860B410B0894F8
:1006020001C08894551F221F331F111CAA1FBB1F34
:10061200881F441F9A9551F7F901612D4F913F911F
:100622002F911F91662332F0550FEE1FFF1F661F99
:100632007A9543F229DF5F91089599239AF07723FF
:1006420042F0971748F029F4AE17BF07860720F04B
:1006520031F0989488940895989408940895189481
:10066200889408957723C2F7971798F3A9F7EA17A2
:10067200FB07680788F399F3ECCFEA0FFB1F681FAB
:10068200791F0895EA1BFB0B680B790B0895EA2783
:10069200FB27682779270895F195E195F0400895A1
:1006A200F09560957095E195FF4F6F4F7F4F0895DC
:1006B200EE0FFF1FEE0FFF1F0895EE0FFF1F661FC5
:1006C200771F08956F2F660F660B762F089500240B
:1006D200112490E1AA0FBB1F001C111C0E1A1F0A45
:1006E20018F40E0E1F1E01C0A1609A9599F7FD0124
:1006F200D00108953CD0EBDF0EF4CEDF08953F9396
:100702004F935F93002411244427552730E2AA0F08
:10071200BB1F881F991F001C111C441F551F0E1A56
:100722001F0A460B570B28F40E0E1F1E461F571F9B
:1007320001C0A1603A9559F7FD01BC01D001CA017F
:100742005F914F913F91089520D0D9DF0EF4A8DF39
:100752000895E894B7FF04C0A095B09511966894E7
:10076200F7FD9ADFB4DFFD010EF496DF0895E894F9
:10077200F7FF02C091DF6894B7FF06C0A095B0955D
:10078200119600F8039400FA0895E89477FF02C0E6
:1007920087DF689497FF0BC00024A095B0958095E1
:1007A20090951196801D901D00F8039400FA08950B
:1007B200ED91FC9111970895ED91FD916D917C91D0
:1007C20013970895ED93FD936D937C9308951B2EDB
:1007D200BF2FF12D1A2EAE2FE12D08953A932A93B1
:1007E2001A930A9308953B812A81198108810895F9
:00000001FF
